:030000000208E80B
:0C08E800787FE4F6D8FD7581080208DA7C
:10080000AC07C2A37F06120814D2A3C2A37F0212B0
:0408100008147F0049
:10081400E4FEEEC39408748094805015EF30E7042E
:10082400D2A18002C2A1D2A0EF25E0FFC2A00E8017
:01083400E1E2
:0108350022A0
:10085C00E4FEEEC39408748094805014D2A0EF256B
:10086C00E0FF30A206A2A2E4334207C2A00E80E24F
:01087C002259
:02087D00AD07C5
:10087F00C2A37F04120814D2A3C2A37F0312080FCE
:0A088F00EDFF12081412085CD2A35A
:01089900223C
:1008CA00120800ECFF120814AF05120814D2A32272
:1008B3008D08120800ECFF1208147F611208147FE0
:0708C30062120814D2A32207
:10089A00C2A37F0512081412085CD2A3EF30E00548
:0808AA007E007F0122E4FEFF45
:0108B2002223
:10083600E4FDFCC3ED9FEE6480F8EC6480985015EF
:10084600E4FBFA0BBB00010ABA04F8BBFBF50DBDCD
:0508560000010C80DE32
:01085B00227A
:0E08DA007D61E4FF1208B37F0212087D80FEEC
:00000001FF
